:020000020000fc
:040000000001703a51
:0400010004c00074c3
:040002009801483adf
:040003009cfff80462
:04000400983ffd1e06
:040005000000203a9d
:04000600002ee03aae
:0400070000004a06a5
:04000800017fffc4b1
:04000900002ee03aab
:04000a0000001b06d1
:04000b003007883af8
:04000c00002ee03aa8
:04000d0000001806d1
:04000e003009883af3
:04000f0018000426ab
:04001000197fff262f
:04001100002ee03aa3
:0400120000002a06ba
:04001300003ff506af
:04001400002ee03aa0
:0400150000000a06d7
:04001600203ee83a66
:04001700003fff06a1
:04001800002ee03a9c
:0400190000000606d7
:04001a00003fff069e
:04001b0003010004d9
:04001c009300033515
:04001d0002c0c03429
:04001e005896b03a06
:04001f0000000706d0
:04002000bdc001045a
:04002100930002370f
:040022006300080c63
:04002300603ffd2617
:040024009000033510
:04002500b800683a7d
:040026000017883afd
:04002700ba00010416
:04002800000d883a05
:0400290005000104c9
:04002a005816123a18
:04002b00002ee03a89
:04002c0000000606c4
:04002d00328cb03a27
:04002e00300c163a42
:04002f00a53fffc426
:04003000a03ff91ed6
:040031004000683ae9
:040032000017883af1
:04003300bdc0010447
:0400340092400237bd
:040035004a40100c21
:04003600483ffd261c
:0400370092c001353d
:0400380092400237b9
:040039004a40200c0d
:04003a00483ffd2618
:04003b00928000238c
:04003c00b800683a66
:04003d00bdc001043d
:04003e001907883adc
:04003f0018ffffc4e3
:0400400092400237b1
:040041004a40100c15
:04004200483ffd2610
:0400430090000135f3
:0400440092400237ad
:040045004a40200c01
:04004600483ffd260c
:0400470092400037ac
:0400480090000135ee
:04004900224000252c
:04004a00210000444d
:04004b0020fff81e7c
:04004c0092400237a5
:04004d004a40200cf9
:04004e00483ffd2604
:04004f0092400037a4
:040050002240002525
:04005100b800683a51
:04005200bb400104aa
:04005300001ce03a73
:0400540004800034f0
:04005500948100048e
:04005600054000342d
:04005700ad420004b2
:04005800ad80103730
:04005900b580004c22
:04005a00b0000226ca
:04005b00ad80143729
:04005c000000010699
:04005d00002d883ab0
:04005e00b005883a27
:04005f00002ee03a55
:04006000003fba069d
:04006100040008048b
:0400620003803fc414
:04006300002ee03a51
:04006400003fcd0686
:040065005380271e7f
:04006600843fffc410
:04006700803ffb1ebd
:040068000400064446
:04006900038000040c
:04006a0000800c0402
:04006b001585883a35
:04006c00002ee03a48
:04006d00003fb20698
:04006e00002ee03a46
:04006f00003fab069d
:04007000002ee03a44
:04007100003fc00686
:040072005280080ca4
:04007300501496bad5
:04007400701cd07ab2
:04007500729cb03a8f
:04007600843fffc400
:04007700803ff81eb0
:04007800040001c4bb
:0400790000800844b7
:04007a001585883a26
:04007b00002ee03a39
:04007c00003fa30698
:04007d00002ee03a37
:04007e00003f9c069d
:04007f00002ee03a35
:04008000003fb10686
:040081005280040c99
:04008200501496fa86
:04008300701cd07aa3
:04008400729cb03a80
:04008500843fffc4f1
:04008600803ff81ea1
:040087007005883a3e
:0400880003bfffc4ef
:0400890013bf8e26ed
:04008a00108001c41d
:04008b001004d0fa93
:04008c001585883a14
:04008d00002ee03a27
:04008e00003f910698
:04008f00002ee03a25
:04009000003f8a069d
:040091006800683a61
:04009200000000006a
:040093000000000069
:040094000000000068
:040095000000000067
:040096000000000066
:040097000000000065
:040098000000000064
:040099000000000063
:04009a000000000062
:04009b000000000061
:04009c000000000060
:04009d00000000005f
:04009e00000000005e
:04009f00000000005d
:0400a000000000005c
:0400a100000000005b
:0400a200000000005a
:0400a3000000000059
:0400a4000000000058
:0400a5000000000057
:0400a6000000000056
:0400a7000000000055
:0400a8000000000054
:0400a9000000000053
:0400aa000000000052
:0400ab000000000051
:0400ac000000000050
:0400ad00000000004f
:0400ae00000000004e
:0400af00000000004d
:0400b000000000004c
:0400b100000000004b
:0400b200000000004a
:0400b3000000000049
:0400b4000000000048
:0400b5000000000047
:0400b6000000000046
:0400b7000000000045
:0400b8000000000044
:0400b9000000000043
:0400ba000000000042
:0400bb000000000041
:0400bc000000000040
:0400bd00000000003f
:0400be00000000003e
:0400bf00000000003d
:0400c000000000003c
:0400c100000000003b
:0400c200000000003a
:0400c3000000000039
:0400c4000000000038
:0400c5000000000037
:0400c6000000000036
:0400c7000000000035
:0400c8000000000034
:0400c9000000000033
:0400ca000000000032
:0400cb000000000031
:0400cc000000000030
:0400cd00000000002f
:0400ce00000000002e
:0400cf00000000002d
:0400d000000000002c
:0400d100000000002b
:0400d200000000002a
:0400d3000000000029
:0400d4000000000028
:0400d5000000000027
:0400d6000000000026
:0400d7000000000025
:0400d8000000000024
:0400d9000000000023
:0400da000000000022
:0400db000000000021
:0400dc000000000020
:0400dd00000000001f
:0400de00000000001e
:0400df00000000001d
:0400e000000000001c
:0400e100000000001b
:0400e200000000001a
:0400e3000000000019
:0400e4000000000018
:0400e5000000000017
:0400e6000000000016
:0400e7000000000015
:0400e8000000000014
:0400e9000000000013
:0400ea000000000012
:0400eb000000000011
:0400ec000000000010
:0400ed00000000000f
:0400ee00000000000e
:0400ef00000000000d
:0400f000000000000c
:0400f100000000000b
:0400f200000000000a
:0400f3000000000009
:0400f4000000000008
:0400f5000000000007
:0400f6000000000006
:0400f7000000000005
:0400f8000000000004
:0400f9000000000003
:0400fa000000000002
:0400fb000000000001
:0400fc000000000000
:0400fd0000000000ff
:0400fe0000000000fe
:0400ff0000000000fd
:00000001FF
